:100000000C9463000C948B000C948B000C948B006C
:100010000C948B000C948B000C948B000C94AF0709
:100020000C948B000C948B000C948B000C948B0024
:100030000C948B000C948B000C948B000C948B0014
:100040000C9449020C948B000C942E040C948004A4
:100050000C948B000C948B000C948B000C948B00F4
:100060000C948B000C948B000000000024002700EF
:100070002A0000000000250028002B0000000000DE
:1000800023002600290004040404040404040202DA
:100090000202020203030303030301020408102007
:1000A0004080010204081020010204081020000012
:1000B0000007000201000003040600000000000029
:1000C00000000200EF0511241FBECFEFD8E0DEBF15
:1000D000CDBF13E0A0E0B1E0EAEEF5E102C005908B
:1000E0000D92A631B107D9F713E0A6E1B3E001C044
:1000F0001D92A23EB107E1F710E0C6ECD0E004C0CB
:100100002297FE010E94EF0AC43CD107C9F70E9462
:1001100046060C94F30A0C9400002F923F924F92E3
:100120005F926F927F928F929F92AF92BF92CF9287
:10013000DF92EF92FF920F931F93DF93CF9300D044
:10014000CDB7DEB78EE00E94250300D000D0AA27ED
:1001500097FDA095BA2F1FEF612E712C812C912C49
:10016000EDB7FEB76182728283829482BC01CD01B9
:1001700020E030E040E050E0FFEFEF2EF3E0FF2E14
:10018000012D112DAA24BB2465010E94210A7A8326
:1001900069830F900F900F900F908FE00E942503BE
:1001A00000D000D0AA2797FDA095BA2FEDB7FEB7D3
:1001B0006182728283829482BC01CD0120E030E0B2
:1001C00040E050E00E94210A1B010F900F900F9019
:1001D0000F9080E10E94250300D000D0AA2797FD50
:1001E000A095BA2FEDB7FEB76182728283829482A6
:1001F000BC01CD0120E030E040E050E00E94210A47
:100200002B010F900F900F900F9081E10E9425031A
:1002100000D000D0AA2797FDA095BA2FEDB7FEB762
:100220006182728283829482BC01CD0120E030E041
:1002300040E050E00E94210A5B010F900F900F9068
:100240000F9082E00E94DA038823D1F489819A8199
:10025000880F991F8C5F9E4FFC01C080D180220CBB
:10026000331C84E091E0280E391EF101E080F1801A
:10027000440C551C480E591EF201008111811BC00F
:10028000813001F589819A81880F991F8C5F9E4F7B
:10029000FC01C080D180220C331C84E091E0280E48
:1002A000391EF10100811181440C551C480E591E64
:1002B000F201E080F180AA0CBB1CA80EB91EF5016A
:1002C000A080B1808BEA93E0B6014AE050E00E9442
:1002D00061078BEA93E060E071E00E9474078BEAAB
:1002E00093E0B7014AE050E00E9461078BEA93E097
:1002F00060E071E00E9474078BEA93E0B8014AE085
:1003000050E00E9461078BEA93E060E071E00E9498
:1003100074078BEA93E0B5014AE050E00E94610760
:100320008BEA93E060E071E00E9474078BEA93E04F
:10033000B6014AE050E00E9461078BEA93E060E07A
:1003400071E00E9474078BEA93E0B8014AE050E044
:100350000E9461078BEA93E060E071E00E947407FD
:100360008BEA93E0B7014AE050E00E9461078BEA14
:1003700093E060E071E00E9474078BEA93E0B501BE
:100380004AE050E00E9461078BEA93E00E948106F8
:1003900080911603909117038330910509F1843001
:1003A00091054CF481309105C1F08230910594F4AF
:1003B000892B69F01DC08530910561F0853091056C
:1003C00034F08630910549F0079791F409C089E02F
:1003D000B60108C089E0B80105C089E0B70102C0D4
:1003E00089E0B50120E030E040E050E00E940B08D9
:1003F00082E10E9425039C019093190380931803C6
:100400008091160390911703079724F01092170319
:100410001092160380911603909117030196909302
:10042000170380931603B901882777FD8095982FCD
:100430000E9491020F900F90CF91DF911F910F9129
:10044000FF90EF90DF90CF90BF90AF909F908F90F4
:100450007F906F905F904F903F902F9008958BEA20
:1004600093E040E855E260E070E00E94BB04109227
:1004700017031092160384E690E09093190380937B
:10048000180382E060E00E94470381E080938100CE
:1004900008951F920F920FB60F9211242F933F933E
:1004A0008F939F93AF93BF9380911E0390911F03EF
:1004B000A0912003B0912103309122030196A11D48
:1004C000B11D232F2D5F2D3720F02D570196A11D33
:1004D000B11D2093220380931E0390931F03A093CA
:1004E0002003B093210380911A0390911B03A091E4
:1004F0001C03B0911D030196A11DB11D80931A0329
:1005000090931B03A0931C03B0931D03BF91AF9165
:100510009F918F913F912F910F900FBE0F901F9041
:1005200018959B01AC017FB7F89480911A039091C4
:100530001B03A0911C03B0911D0366B5A89B05C0C9
:100540006F3F19F00196A11DB11D7FBFBA2FA92FD2
:10055000982F8827860F911DA11DB11D62E0880F7D
:10056000991FAA1FBB1F6A95D1F7BC012DC0FFB709
:10057000F89480911A0390911B03A0911C03B091F1
:100580001D03E6B5A89B05C0EF3F19F00196A11D1C
:10059000B11DFFBFBA2FA92F982F88278E0F911D4D
:1005A000A11DB11DE2E0880F991FAA1FBB1FEA958C
:1005B000D1F7861B970B885E9340C8F221503040DC
:1005C0004040504068517C4F21153105410551058F
:1005D00071F60895789484B5826084BD84B5816095
:1005E00084BD85B5826085BD85B5816085BDEEE63B
:1005F000F0E0808181608083E1E8F0E0108280811A
:1006000082608083808181608083E0E8F0E0808187
:1006100081608083E1EBF0E0808184608083E0EBA7
:10062000F0E0808181608083EAE7F0E0808184608F
:1006300080838081826080838081816080838081EB
:10064000806880831092C1000895982F8E3008F042
:100650009E509770809104038295880F880F807C4C
:10066000892B80937C0080917A00806480937A004B
:1006700080917A0086FDFCCF20917800409179002E
:10068000942F80E030E0282B392BC9010895CF93B7
:10069000DF93482F50E0CA0186569F4FFC013491EA
:1006A0004A575F4FFA018491882369F190E0880FDF
:1006B000991FFC01E859FF4FA591B491FC01EE5838
:1006C000FF4FC591D491662351F42FB7F8948C91C4
:1006D000932F909589238C93888189230BC0623056
:1006E00061F42FB7F8948C91932F909589238C9374
:1006F0008881832B88832FBF06C09FB7F8948C9185
:10070000832B8C939FBFDF91CF910895482F50E0AA
:10071000CA0182559F4FFC012491CA0186569F4F02
:10072000FC0194914A575F4FFA013491332309F445
:1007300040C0222351F1233071F0243028F42130BD
:10074000A1F0223011F514C02630B1F02730C1F0ED
:100750002430D9F404C0809180008F7703C0809149
:1007600080008F7D8093800010C084B58F7702C099
:1007700084B58F7D84BD09C08091B0008F7703C0A0
:100780008091B0008F7D8093B000E32FF0E0EE0FFA
:10079000FF1FEE58FF4FA591B4912FB7F894662331
:1007A00021F48C919095892302C08C91892B8C9394
:1007B0002FBF0895682F70E0CB0182559F4FFC0139
:1007C0002491CB0186569F4FFC0144916A577F4F7D
:1007D000FB019491992319F420E030E03CC02223DE
:1007E00051F1233071F0243028F42130A1F022306F
:1007F00011F514C02630B1F02730C1F02430D9F4FF
:1008000004C0809180008F7703C0809180008F7D2D
:100810008093800010C084B58F7702C084B58F7D2F
:1008200084BD09C08091B0008F7703C08091B00073
:100830008F7D8093B000892F90E0880F991F845896
:100840009F4FFC01A591B4918C9120E030E084236E
:1008500011F021E030E0C901089508951F920F9230
:100860000FB60F9211242F933F934F938F939F9323
:10087000EF93FF938091C00082FD1DC04091C600A0
:1008800020916303309164032F5F3F4F2F733070CB
:1008900080916503909166032817390771F0E09104
:1008A0006303F0916403ED5DFC4F40833093640378
:1008B0002093630302C08091C600FF91EF919F9146
:1008C0008F914F913F912F910F900FBE0F901F90DE
:1008D0001895E091B703F091B803E05CFF4F819168
:1008E000919120813181805C9F4F821B930B60E44A
:1008F00070E00E94890A892B11F00E942D0408954E
:100900001F920F920FB60F9211242F933F938F9344
:100910009F93EF93FF932091A7033091A8038091B9
:10092000A9039091AA032817390731F48091C100D7
:100930008F7D8093C10014C0E091A903F091AA03B8
:10094000E959FC4F20818091A9039091AA03019657
:100950008F7390709093AA038093A9032093C6008D
:10096000FF91EF919F918F913F912F910F900FBE2B
:100970000F901F901895AF92BF92DF92EF92FF9267
:100980000F931F93CF93DF93EC017A018B01DD244A
:10099000403081EE580780E0680780E0780711F06A
:1009A000DD24D39491E0A92EB12CEC89FD89DD20C2
:1009B00069F0C50108A002C0880F991F0A94E2F7E8
:1009C000808360E079E08DE390E005C0108260E80C
:1009D00074E88EE190E0A80197010E949C0A2150E2
:1009E000304040405040569547953795279580E1D7
:1009F0002030380720F0DD2011F0DD24D6CFE88943
:100A0000F9893083EA89FB89208319A2EE89FF895D
:100A1000408121E030E0C9010C8C02C0880F991F91
:100A20000A94E2F7482B4083EE89FF894081C9018F
:100A30000D8C02C0880F991F0A94E2F7482B40835F
:100A4000EE89FF894081C9010E8C02C0880F991F71
:100A50000A94E2F7482B4083EE89FF8980810F8C4E
:100A600002C0220F331F0A94E2F720952823208327
:100A7000DF91CF911F910F91FF90EF90DF90BF908A
:100A8000AF900895DC011C96ED91FC911D97E05C00
:100A9000FF4F8191919120813181805C9F4F821B1A
:100AA000930B60E470E00E94890A0895DC011C96B3
:100AB000ED91FC911D97E05CFF4F20813181E05466
:100AC000F040DF01AE5BBF4F8D919C9111972817CD
:100AD000390719F42FEF3FEF07C08D919C91E80F74
:100AE000F91F8081282F30E0C9010895DC011C9690
:100AF000ED91FC911D97E05CFF4F20813181E05426
:100B0000F040DF01AE5BBF4F8D919C91119728178C
:100B1000390719F42FEF3FEF10C08D919C91119779
:100B2000E80FF91F20818D919C91119701968F7389
:100B3000907011969C938E9330E0C9010895DC016A
:100B400091968C919197882339F05496ED91FC9170
:100B50005597808186FFF9CF91961C920895CF9387
:100B6000DF93EC01EE85FF85E05CFF4F2081318152
:100B7000E054F0402F5F3F4F2F733070DF01AE5BCA
:100B8000BF4F8D919C91119728173907D1F3E05CE5
:100B9000FF4F80819181E054F040E80FF91F60839E
:100BA000EE85FF85E05CFF4F31832083EE89FF896E
:100BB000208181E090E00F8C02C0880F991F0A9479
:100BC000E2F7282B208381E089A3EC89FD898081CD
:100BD0008064808381E090E0DF91CF91089510924E
:100BE000AE031092AD0388EE93E0A0E0B0E08093F6
:100BF000AF039093B003A093B103B093B2038AE024
:100C000093E09093AC038093AB0383E293E09093E3
:100C1000B8038093B70387E693E09093BA03809379
:100C2000B90385EC90E09093BC038093BB0384EC04
:100C300090E09093BE038093BD0380EC90E090938E
:100C4000C0038093BF0381EC90E09093C203809334
:100C5000C10382EC90E09093C4038093C30386ECBD
:100C600090E09093C6038093C50384E08093C7030C
:100C700083E08093C80387E08093C90385E0809375
:100C8000CA0381E08093CB0308950895CF93DF9347
:100C90000E94EA020E9445060E942F02C9E6D4E0A3
:100CA0000E948D002097E1F30E946904F9CFCF9252
:100CB000DF92EF92FF920F931F93CF93DF937C010C
:100CC0006B018A01C0E0D0E00FC0D6016D916D01CB
:100CD000D701ED91FC910190F081E02DC7010995BC
:100CE000C80FD91F015010400115110571F7CE0131
:100CF000DF91CF911F910F91FF90EF90DF90CF90F8
:100D00000895EF92FF920F931F938C01DC01ED91F8
:100D1000FC910190F081E02D6DE009957C01D801F6
:100D2000ED91FC910190F081E02DC8016AE00995F8
:100D30009C012E0D3F1DC9011F910F91FF90EF9057
:100D40000895CF93DF93EC016115710519F420E04C
:100D500030E00FC0DB010D900020E9F71197A61BD2
:100D6000B70BE881F9810280F381E02DAD0109958F
:100D70009C01C901DF91CF9108954F925F927F92BC
:100D80008F929F92AF92BF92CF92DF92EF92FF929B
:100D90000F931F93DF93CF93CDB7DEB7A1970FB615
:100DA000F894DEBF0FBECDBF2C01742ECB012230D4
:100DB00008F42AE019A231E2C32ED12CCC0EDD1E9C
:100DC000822E9924AA24BB24672D752FA501940196
:100DD0000E949C0A79018A01C801B701A50194010A
:100DE0000E946A0A472D461B0894C108D1084A3060
:100DF00014F4405D01C0495CF6014083E114F10444
:100E00000105110521F07E2C5F2DC801DDCFC20147
:100E1000B6010E94A106A1960FB6F894DEBF0FBEE0
:100E2000CDBFCF91DF911F910F91FF90EF90DF9099
:100E3000CF90BF90AF909F908F907F905F904F909A
:100E40000895CF92DF92EF92FF920F931F93CF936B
:100E5000DF93EC016A017B012115310541F4E88142
:100E6000F9810190F081E02D642F09951FC02A308F
:100E70003105D1F477FF17C0E881F9810190F08145
:100E8000E02D6DE209958C0144275527BA014C19D4
:100E90005D096E097F09CE012AE00E94BD06980116
:100EA000280F391F04C02AE00E94BD069C01C90119
:100EB000DF91CF911F910F91FF90EF90DF90CF9036
:100EC0000895EF92FF920F931F937B019A010027E1
:100ED000F7FC0095102FB801A7010E9421071F9170
:100EE0000F91FF90EF9008950E94A1060895813020
:100EF00041F0813018F08230D1F409C010926E00B8
:100F0000089580916F008D7F80936F000895809188
:100F100070008D7F8093700081E08093B00080919D
:100F2000B100887F84608093B1001092B30008956F
:100F30001F93182F80910503811711F09FEF06C0B2
:100F4000E2ECF0E094918FEF80930503892F0E94EB
:100F50007707812F60E00E9486031F9108951F92FA
:100F60000F920FB60F9211242F933F934F935F93DD
:100F70006F937F938F939F93AF93BF93EF93FF9361
:100F80008091DB039091DC03A091DD03B091DE033F
:100F90000097A105B10551F1E091DF03F091E00365
:100FA00080819091E103892780838091DB03909178
:100FB000DC03A091DD03B091DE03181619061A06B2
:100FC0001B06C4F48091DB039091DC03A091DD0348
:100FD000B091DE030197A109B1098093DB039093DF
:100FE000DC03A093DD03B093DE0304C0809105030E
:100FF0000E949807FF91EF91BF91AF919F918F91C0
:101000007F916F915F914F913F912F910F900FBE04
:101010000F901F9018952F923F925F926F927F9240
:101020008F929F92AF92BF92CF92DF92EF92FF92F8
:101030000F931F93DF93CF9300D000D0CDB7DEB7CF
:10104000A82F1B0129833A834B835C83809105037E
:101050008A1721F4E2ECF0E0549082C08F3F09F04F
:10106000DAC1A0930503E2ECF0E054902FEF5216A2
:1010700009F4D1C181E0581639F192E0591609F40A
:1010800049C0552009F06CC014BC15BC84B5826001
:1010900084BD85B5816085BD2A2F30E0F901EA570E
:1010A000FF4FE491F0E0EE0FFF1FEE58FF4F8591E8
:1010B00094919093D2038093D10326563F4FF90128
:1010C00084918093D3034EC01092800010928100CF
:1010D000809181008860809381008091810081608F
:1010E000809381002A2F30E0F901EA57FF4FE49105
:1010F000F0E0EE0FFF1FEE58FF4F85919491909313
:10110000D9038093D80326563F4FF90184918093E9
:10111000DA0328C01092B0001092B1008091B000A4
:1011200082608093B0008091B10081608093B100B3
:101130002A2F30E0F901EA57FF4FE491F0E0EE0F7B
:10114000FF1FEE58FF4F859194919093E003809399
:10115000DF0326563F4FF90184918093E10302C0DB
:1011600057FC59C18A2F61E00E944703552021F0A6
:10117000F2E05F1609F0BEC031018824992460E0D6
:1011800072E18AE790E0A40193010E94BE0A59012E
:101190006A01860175010894E108F1080109110945
:1011A0002FEFE216F1040105110509F008F499C0CA
:1011B00060E472E48FE090E0A40193010E94BE0A13
:1011C00079018A010894E108F1080109110982E016
:1011D0005816C1F49FEFE916F1040105110509F055
:1011E00008F484C060E970ED83E090E0A40193010D
:1011F0000E94BE0A79018A010894E108F1080109F8
:10120000110983E0AFEFEA16F1040105110509F0B9
:1012100008F468C068E478EE81E090E0A4019301EE
:101220000E94BE0A79018A010894E108F1080109C7
:101230001109552011F483E01DC0B2E05B1611F0D6
:1012400084E018C0EFEFEE16F1040105110509F076
:1012500008F4DFC064E274EF80E090E0A401930141
:101260000E94BE0A79018A010894E108F108010987
:10127000110985E0FFEFEF16F1040105110591F169
:1012800088F162E17AE780E090E0A40193010E9496
:10129000BE0A79018A010894E108F10801091109DF
:1012A000552011F086E001C084E02FEFE216F10432
:1012B00001051105B9F0B0F0C601B50120E034E038
:1012C00040E050E00E94BE0A79018A010894E108DA
:1012D000F10801091109552011F087E008C085E0E7
:1012E00003C081E0552019F485BD3AC082E08093A7
:1012F000B10036C05101CC24DD2460E072E18AE700
:1013000090E0A60195010E94BE0A79018A01089425
:10131000E108F1080109110980E0E81680E0F8060B
:1013200081E0080780E0180710F491E010C068E43D
:1013300078EE81E090E0A60195010E94BE0A790155
:101340008A010894E108F1080109110993E0A1E07C
:101350005A1631F480918100887F982B90938100F8
:1013600089819A81AB81BC810097A105B10529F4DF
:101370008FEF9FEFAFEFBFEF13C0220C331CB10113
:1013800080E090E029813A814B815C810E946A0A69
:1013900028EE33E040E050E00E949C0AC901DA01E7
:1013A000E1E05E16A1F0F2E05F1619F1552099F523
:1013B000E7BC8093CD039093CE03A093CF03B0936B
:1013C000D00380916E00826080936E0024C0F09202
:1013D0008900E09288008093D4039093D503A09372
:1013E000D603B093D70380916F00826080936F0023
:1013F00012C0E092B3008093DB039093DC03A093D0
:10140000DD03B093DE0380917000826080937000F2
:1014100002C084E06CCF0F900F900F900F90CF918F
:10142000DF911F910F91FF90EF90DF90CF90BF90D1
:10143000AF909F908F907F906F905F903F902F9094
:1014400008952F923F924F925F926F927F928F9268
:101450009F92AF92BF92CF92DF92EF92FF920F9343
:101460001F93DF93CF93CDB7DEB73B014C0119013A
:101470002A016D897E898F89988D6A197B098C096B
:101480009D09621A730A840A950AA40193010E94B5
:101490006A0AE218F30804091509A80197010E94D5
:1014A000BE0A2A0D3B1D4C1D5D1DB901CA01CF911D
:1014B000DF911F910F91FF90EF90DF90CF90BF9041
:1014C000AF909F908F907F906F905F904F903F90E4
:1014D0002F900895629FD001739FF001829FE00DCD
:1014E000F11D649FE00DF11D929FF00D839FF00DA3
:1014F000749FF00D659FF00D9927729FB00DE11D4F
:10150000F91F639FB00DE11DF91FBD01CF0111242B
:10151000089597FB092E07260AD077FD04D049D0FD
:1015200006D000201AF4709561957F4F0895F6F764
:10153000909581959F4F0895A1E21A2EAA1BBB1B7F
:10154000FD010DC0AA1FBB1FEE1FFF1FA217B3078F
:10155000E407F50720F0A21BB30BE40BF50B661FA5
:10156000771F881F991F1A9469F760957095809569
:1015700090959B01AC01BD01CF01089597FB092E09
:1015800005260ED057FD04D0D7DF0AD0001C38F452
:1015900050954095309521953F4F4F4F5F4F08959F
:1015A000F6F790958095709561957F4F8F4F9F4F7F
:1015B0000895AA1BBB1B51E107C0AA1FBB1FA6179A
:1015C000B70710F0A61BB70B881F991F5A95A9F7EC
:1015D00080959095BC01CD010895EE0FFF1F0590F9
:0A15E000F491E02D0994F894FFCF78
:1015EA00203A200080008300860089008C008F004A
:1015FA009200960099009C009F00A200A500A800F6
:10160A00AA00AD00B000B300B600B900BB00BE002E
:10161A00C100C300C600C900CB00CE00D000D20072
:10162A00D500D700D900DB00DD00DF00E100E300D0
:10163A00E500E700E900EA00EC00EE00EF00F10047
:10164A00F200F300F400F600F700F800F900F900E0
:10165A00FA00FB00FC00FC00FD00FD00FD00FE009E
:10166A00FE00FE00FE00FE00FE00FE00FD00FD0082
:10167A00FD00FC00FC00FB00FA00F900F900F8008C
:10168A00F700F600F400F300F200F100EF00EE00BC
:10169A00EC00EA00E900E700E500E300E100DF0012
:1016AA00DD00DB00D900D700D500D200D000CE0083
:1016BA00CB00C900C600C300C100BE00BB00B90010
:1016CA00B600B300B000AD00AA00A800A500A200B1
:1016DA009F009C009900960092008F008C00890060
:1016EA00860080007D007A007700740071006E0029
:1016FA006A006700640061005E005B0058005600E3
:10170A00530050004D004A004700450042003F0088
:10171A003D003A0037003500320030002E002B0021
:10172A00290027002500230021001F001D001B009F
:10173A001900170016001400120011000F000E0005
:10174A000D000C000A000900080007000700060047
:10175A000500040004000300030003000200020065
:10176A00020002000200020002000300030003005C
:10177A00040004000500060007000700080009002D
:10178A000A000C000D000E000F00110012001400D8
:10179A001600170019001B001D001F00210023005E
:1017AA002500270029002B002E00300032003500CA
:1017BA0037003A003D003F004200450047004A001A
:1017CA004D0050005300560058005B005E00610057
:1017DA00640067006A006E007100740077007A0086
:1017EA007D007F0001FF00000000AF05570642059B
:0617FA00760556059F056F
:00000001FF
