:100000000C9461000C947E000C947E000C947E0095
:100010000C947E000C947E000C947E000C947E0068
:100020000C947E000C9480000C947E000C947E0056
:100030000C947E000C947E000C947E000C947E0048
:100040000C94AC020C947E000C947E000C947E0008
:100050000C947E000C947E000C947E000C947E0028
:100060000C947E000C947E00000000002400270009
:100070002A0000000000250028002B0000000000DE
:1000800023002600290004040404040404040202DA
:100090000202020203030303030301020408102007
:1000A0004080010204081020010204081020000012
:1000B0000007000201000003040600000000000029
:1000C000000011241FBECFEFD8E0DEBFCDBF14E08B
:1000D000A0E0B1E0E0EFF8E002C005900D92A4349A
:1000E000B107D9F714E0A4E4B4E001C01D92A03632
:1000F000B107E1F70E943E040C9476040C940000D2
:100100001F920F920FB60F9211240F931F932F93EC
:100110003F934F935F936F937F938F939F93AF938F
:10012000BF93CF93DF93EF93FF93209146043091D9
:1001300047048091440490914504820F931F90934B
:1001400045048093440482179307B0F41092490445
:10015000109248048FEF9FE790934D0480934C04D6
:100160001092500410924F049093540480935304BF
:1001700085B190E2892785B920914A0430914B04DA
:100180008091480490914904280F391F3093490405
:1001900020934804409151045091520480914F049F
:1001A00090915004480F591F5093500440934F04AE
:1001B000C901880F892F881F990B9195082F37FD4A
:1001C0000095A0914C04B0914D04CB2FDD27CA01BE
:1001D000880F892F881F990B9195182F57FD10951F
:1001E0006091530470915404E72FFF27802F90E013
:1001F0008C9F90018D9F300D9C9F300D1124812F7D
:1002000090E08E9FA0018F9F500D9E9F500D112456
:10021000420F531F80914E0490E09C012C9FC0011F
:100220002D9F900D3C9F900D1124A81BB90BB093EE
:100230004D04A0934C048091550490E09C012E9FA6
:10024000C0012F9F900D3E9F900D1124681B790BCC
:100250007093540460935304852F86958093B40063
:10026000FF91EF91DF91CF91BF91AF919F918F91CE
:100270007F916F915F914F913F912F911F910F91BE
:100280000F900FBE0F901F901895FF920F931F9322
:10029000CF93DF9384E00E948803082FF92E82E039
:1002A00060E00E94E90384E061E00E94E90385E0E8
:1002B0000E9488036CEC70E00E944F04E62FF0E08F
:1002C000EA5CFB4F108184E060E00E94E90382E079
:1002D00061E00E94E90385E00E948803EC0112308E
:1002E00041F1133030F4112351F0113009F04AC0BC
:1002F00013C0133059F1143009F044C034C0802FBA
:100300009F2D69E170E00E944F04E62FF0E0EE0FB0
:10031000FF1FEC51FD4F33C0802F9F2D69E170E02E
:100320000E944F04E62FF0E0EE0FFF1FEE56FD4F48
:1003300026C0802F9F2D69E170E00E944F04E62FB8
:10034000F0E0EE0FFF1FEA5CFC4F19C0802F9F2DDD
:100350006DE570E00E944F04E62FF0E0EE0FFF1F06
:10036000E058FD4F0CC0802F9F2D6DE070E00E9483
:100370004F04E62FF0E0EE0FFF1FEC55FC4F01900D
:10038000F081E02DEE0FFF1FE058FE4F808191813C
:10039000909347048093460480E00E9488039C0168
:1003A000FC01EF73F070EE0FFF1FE050FF4F06E00F
:1003B000369527950A95E1F78081918102C096953F
:1003C00087952A95E2F79695879590934B048093AD
:1003D0004A0482E00E94880368E070E00E9463049F
:1003E00060934E0481E00E9488039C01FC01EF733E
:1003F000F070EE0FFF1FE050FF4FA6E036952795F7
:10040000AA95E1F78081918102C0969587952A95FA
:10041000E2F796958795909352048093510483E078
:100420000E94880364E070E00E94630460935504B6
:100430008CE060E00E94E9038BE060E00E94E90349
:100440008AE060E00E94E90389E060E00E94E9033D
:1004500088E060E00E94E90387E060E00E94E90331
:1004600086E060E00E94E90385E060E00E94E90325
:10047000809156048770809356048330B1F08430A5
:1004800028F4813071F0823070F409C0853089F031
:10049000853068F0863079F0873099F40EC08CE0B2
:1004A0000DC08BE00BC08AE009C089E007C088E07E
:1004B00005C087E003C086E001C085E061E00E94DE
:1004C000E903809156048F5F80935604BE0180E05B
:1004D00090E00E94F402DF91CF911F910F91FF9065
:1004E00008951092560482E061E00E94AA0384E01D
:1004F00061E00E94AA0383E061E00E94AA038CE00D
:1005000061E00E94AA038BE061E00E94AA038AE0F6
:1005100061E00E94AA0389E061E00E94AA0388E0EA
:1005200061E00E94AA0387E061E00E94AA0386E0DE
:1005300061E00E94AA0385E061E00E94AA0381E2D3
:100540008093B00081E08093B100809370008DE0D3
:1005500061E00E94AA0308951F920F920FB60F92B6
:1005600011242F933F938F939F93AF93BF938091C9
:100570005B0490915C04A0915D04B0915E043091A5
:100580005F040196A11DB11D232F2D5F2D3720F093
:100590002D570196A11DB11D20935F0480935B042C
:1005A00090935C04A0935D04B0935E048091570423
:1005B00090915804A0915904B0915A040196A11D3C
:1005C000B11D8093570490935804A0935904B0939D
:1005D0005A04BF91AF919F918F913F912F910F90AE
:1005E0000FBE0F901F9018959B01AC017FB7F89438
:1005F0008091570490915804A0915904B0915A04E5
:1006000066B5A89B05C06F3F19F00196A11DB11DED
:100610007FBFBA2FA92F982F8827860F911DA11D64
:10062000B11D62E0880F991FAA1FBB1F6A95D1F701
:10063000BC012DC0FFB7F8948091570490915804E5
:10064000A0915904B0915A04E6B5A89B05C0EF3FAC
:1006500019F00196A11DB11DFFBFBA2FA92F982F28
:1006600088278E0F911DA11DB11DE2E0880F991FF3
:10067000AA1FBB1FEA95D1F7861B970B885E934094
:10068000C8F2215030404040504068517C4F211505
:1006900031054105510571F60895789484B582605D
:1006A00084BD84B5816084BD85B5826085BD85B516
:1006B000816085BDEEE6F0E0808181608083E1E8C5
:1006C000F0E01082808182608083808181608083FD
:1006D000E0E8F0E0808181608083E1EBF0E0808100
:1006E00084608083E0EBF0E0808181608083EAE7D2
:1006F000F0E080818460808380818260808380815B
:10070000816080838081806880831092C100089519
:10071000982F8E3008F09E509770809143048295F8
:10072000880F880F807C892B80937C0080917A00D1
:10073000806480937A0080917A0086FDFCCF2091BE
:10074000780040917900942F80E030E0282B392BFD
:10075000C9010895CF93DF93482F50E0CA01865610
:100760009F4FFC0134914A575F4FFA0184918823CF
:1007700069F190E0880F991FFC01E859FF4FA5919E
:10078000B491FC01EE58FF4FC591D491662351F40A
:100790002FB7F8948C91932F909589238C9388810F
:1007A00089230BC0623061F42FB7F8948C91932F9A
:1007B000909589238C938881832B88832FBF06C0D3
:1007C0009FB7F8948C91832B8C939FBFDF91CF912F
:1007D0000895482F50E0CA0182559F4FFC01249193
:1007E000CA0186569F4FFC0194914A575F4FFA0108
:1007F0003491332309F440C0222351F1233071F0A6
:10080000243028F42130A1F0223011F514C0263014
:10081000B1F02730C1F02430D9F404C080918000B9
:100820008F7703C0809180008F7D8093800010C0FF
:1008300084B58F7702C084B58F7D84BD09C0809157
:10084000B0008F7703C08091B0008F7D8093B0009F
:10085000E32FF0E0EE0FFF1FEE58FF4FA591B4918C
:100860002FB7F894662321F48C919095892302C0C8
:100870008C91892B8C932FBF08950895CF93DF938C
:100880000E944D030E943D040E947102C0E0D0E02E
:100890000E9445012097E1F30E940000F9CFAA1BB6
:1008A000BB1B51E107C0AA1FBB1FA617B70710F05B
:1008B000A61BB70B881F991F5A95A9F7809590958D
:1008C000BC01CD01089597FB092E07260AD077FDBC
:1008D00004D0E5DF06D000201AF4709561957F4FB3
:1008E0000895F6F7909581959F4F0895F894FFCF5E
:1008F0003EFD84FAD1F725F581F2E5EF4FEDC1EA2F
:1009000039E8B9E540E3CDE061DEFCDB9DD945D7B0
:10091000F3D4A8D263D025CEECCBBAC98DC767C5B6
:1009200047C32CC118BF09BDFFBAFCB8FEB605B558
:1009300012B324B13BAF58AD7AABA1A9CEA7FFA5A6
:1009400035A470A2B0A0F59E3F9D8D9BE09938988C
:100950009496F5945A93C4913290A48E1B8D968BE5
:10096000158A98881F87AB853A84CE82658100807E
:1009700000001200130014001600170018001A00DF
:100980001B001D001F00200022002400260029005B
:100990002B002E003000330036003A003D004100AD
:1009A000450049004D00520056005C0061006700A0
:1009B0006D0073007A008100890091009A00A30005
:1009C000AD00B700C200CE00DA00E700F40003017A
:1009D00012012301340146015A016E0184019B0179
:1009E000B301CD01E90106022502450268028C022D
:1009F000B302DC020803360367039B03D2030C0433
:100A000049048B04D00419056705B90510066C0666
:100A1000CE063507A3071708930815099F09320A60
:100A2000CD0A720B200CD80C9C0D6B0E460F2F10AC
:100A300025112A123F1364149A15E3163F18B119B1
:100A4000381BD61C8D1E5E204B2255247E26C828BE
:100A5000342BC62D7F3061336F36AC391A3DBC4024
:100A60009544A948FC4C8F5169568C5BFE60C26668
:100A700000000C00180030003C00480054006000EA
:100A80006C0000000300050007000A000C000F00C6
:100A900011001300160018001B001D001F0022008B
:100AA0002400270029002B002E00300033003500E1
:100AB00037003A003C003F00410043004600480038
:100AC0004B004D004F0052005400570059005B008E
:100AD0005E006000000002000400070009000C0036
:100AE0000E0010001300150018001A001C001F0053
:100AF00021002400260028002B002D0030003200A9
:100B00003400370039003C003E00400043004500FF
:100B100048004A004C004F00510054005600580055
:100B20005B005D00600000000400050007000B0092
:100B30000C00100011001300170018001C001D000D
:100B40001F0023002400280029002B002F00300064
:100B50003400350037003B003C00400041004300BA
:100B6000470048004C004D004F005300540058000F
:100B700059005B005F006000000000000000000002
:100B80000000000000000000000000000000000065
:100B9000000000000000180019001A001B001C00D3
:100BA0001D001E001F002000210022002300240041
:100BB000250026002700280029002A002B002C00F1
:100BC0002D002E002F0030003100320033003400A1
:100BD000350036003700380039003A003B003C0051
:100BE0003D003E003F004000410042004300440001
:100BF000450046004700480049004A004B004C00B1
:100C00004D004E004F005000510052005300540060
:100C1000550056005700580059005A005B005C0010
:100C20005D005E005F00000102030405060708097D
:040C30000A0B0C019E
:00000001FF
