:100000000C9462000C948A000C948A000C948A0070
:100010000C948A000C948A000C948A000C948A0038
:100020000C948A000C948C000C948A000C948A0026
:100030000C948A000C948A000C948A000C948A0018
:100040000C94A6050C948A000C947E020C94D002A9
:100050000C948A000C948A000C948A000C948A00F8
:100060000C948A000C948A000000000024002700F1
:100070002A0000000000250028002B0000000000DE
:1000800023002600290004040404040404040202DA
:100090000202020203030303030301020408102007
:1000A0004080010204081020010204081020000012
:1000B0000007000201000003040600000000000029
:1000C00000003F0411241FBECFEFD8E0DEBFCDBF3C
:1000D00012E0A0E0B1E0E2E3FDE002C005900D9285
:1000E000A030B107D9F712E0A0E0B2E001C01D9244
:1000F000A53CB107E1F710E0C4ECD0E004C02297C2
:10010000FE010E949306C23CD107C9F70E949604E3
:100110000C9497060C9400001F920F920FB60F924A
:1001200011240F931F932F933F934F935F936F93DC
:100130007F938F939F93AF93BF93CF93DF93EF936F
:10014000FF9320910202309103028091000290916E
:100150000102820F931F9093010280930002821785
:100160009307B0F410920502109204028FEF9FE7FC
:10017000909309028093080210920C0210920B02D5
:100180009093100280930F0285B190E2892785B980
:10019000209106023091070280910402909105029D
:1001A000280F391F309305022093040240910D025D
:1001B00050910E0280910B0290910C02480F591F32
:1001C00050930C0240930B02C901880F892F881F9E
:1001D000990B9195082F37FD0095A0910802B091D9
:1001E0000902CB2FDD27CA01880F892F881F990BA1
:1001F0009195182F57FD109560910F027091100284
:10020000E72FFF27802F90E08C9F90018D9F300D6E
:100210009C9F300D1124812F90E08E9FA0018F9F15
:10022000500D9E9F500D1124420F531F80910A02C2
:1002300090E09C012C9FC0012D9F900D3C9F900D44
:100240001124A81BB90BB0930902A0930802809156
:10025000110290E09C012E9FC0012F9F900D3E9FA8
:10026000900D1124681B790B7093100260930F029C
:10027000852F86958093B400FF91EF91DF91CF9108
:10028000BF91AF919F918F917F916F915F914F91AE
:100290003F912F911F910F910F900FBE0F901F90C4
:1002A0001895EF92FF920F931F9384E00E941C0217
:1002B0002FEF33E0A901481B590BCA0163E170E03D
:1002C0000E944806E62FF0E0EE0FFF1FEE57FE4FAC
:1002D00080819181909303028093020280E00E94CA
:1002E0001C029C01FC01EF73F07002E011E0EE0FC4
:1002F000FF1FE00FF11F76E0369527957A95E1F71D
:100300008081918102C0969587952A95E2F796950E
:100310008795909307028093060282E00E941C0258
:1003200068E070E00E945C0660930A0283E00E942D
:100330001C029C018F739070880F991F080F191F62
:1003400046E0369527954A95E1F7F801808191813D
:1003500002C0969587952A95E2F796958795909392
:100360000E0280930D0281E00E941C0264E070E0A6
:100370000E945C06609311020AE912E06091020299
:1003800070910302C8014AE050E00E94800580E0BD
:10039000E82E81E0F82EC801B7010E94A305609104
:1003A000060270910702C8014AE050E00E948005F1
:1003B000C801B7010E94A305C80160910A024AE082
:1003C00050E00E949105C801B7010E94A305609109
:1003D0000D0270910E02C8014AE050E00E948005B3
:1003E000C801B7010E94A305C801609111024AE04B
:1003F00050E00E949105C8010E94D1041F910F9105
:10040000FF90EF90089583E061E00E943E0281E258
:100410008093B00081E08093B100809370008DE004
:1004200061E00E943E028AE992E040E855E260E025
:1004300070E00E940B030895982F8E3008F09E50B4
:1004400097708091EE018295880F880F807C892BB0
:1004500080937C0080917A00806480937A00809100
:100460007A0086FDFCCF2091780040917900942F8E
:1004700080E030E0282B392BC9010895CF93DF931A
:10048000482F50E0CA0186569F4FFC0134914A57CD
:100490005F4FFA018491882369F190E0880F991FDA
:1004A000FC01E859FF4FA591B491FC01EE58FF4FB4
:1004B000C591D491662351F42FB7F8948C91932F62
:1004C000909589238C93888189230BC0623061F4D5
:1004D0002FB7F8948C91932F909589238C938881D2
:1004E000832B88832FBF06C09FB7F8948C91832BF2
:1004F0008C939FBFDF91CF91089508951F920F9223
:100500000FB60F9211242F933F934F938F939F9386
:10051000EF93FF938091C00082FD1DC04091C60003
:1005200020915202309153022F5F3F4F2F73307052
:1005300080915402909155022817390771F0E0918B
:100540005202F0915302EE5EFD4F4083309353020E
:100550002093520202C08091C600FF91EF919F91BB
:100560008F914F913F912F910F900FBE0F901F9041
:100570001895E091A602F091A702E05CFF4F8191EF
:10058000919120813181805C9F4F821B930B60E4AD
:1005900070E00E945C06892B11F00E947D02089594
:1005A0001F920F920FB60F9211242F933F938F93A8
:1005B0009F93EF93FF932091960230919702809141
:1005C0009802909199022817390731F48091C1005F
:1005D0008F7D8093C10014C0E0919802F091990240
:1005E000EA5AFD4F208180919802909199020196DC
:1005F0008F73907090939902809398022093C60015
:10060000FF91EF919F918F913F912F910F900FBE8E
:100610000F901F901895AF92BF92DF92EF92FF92CA
:100620000F931F93CF93DF93EC017A018B01DD24AD
:10063000403081EE580780E0680780E0780711F0CD
:10064000DD24D39491E0A92EB12CEC89FD89DD2025
:1006500069F0C50108A002C0880F991F0A94E2F74B
:10066000808360E079E08DE390E005C0108260E86F
:1006700074E88EE190E0A80197010E946F06215076
:10068000304040405040569547953795279580E13A
:100690002030380720F0DD2011F0DD24D6CFE889A6
:1006A000F9893083EA89FB89208319A2EE89FF89C1
:1006B000408121E030E0C9010C8C02C0880F991FF5
:1006C0000A94E2F7482B4083EE89FF894081C901F3
:1006D0000D8C02C0880F991F0A94E2F7482B4083C3
:1006E000EE89FF894081C9010E8C02C0880F991FD5
:1006F0000A94E2F7482B4083EE89FF8980810F8CB2
:1007000002C0220F331F0A94E2F72095282320838A
:10071000DF91CF911F910F91FF90EF90DF90BF90ED
:10072000AF900895DC011C96ED91FC911D97E05C63
:10073000FF4F8191919120813181805C9F4F821B7D
:10074000930B60E470E00E945C060895DC011C9647
:10075000ED91FC911D97E05CFF4F20813181E054C9
:10076000F040DF01AE5BBF4F8D919C911197281730
:10077000390719F42FEF3FEF07C08D919C91E80FD7
:10078000F91F8081282F30E0C9010895DC011C96F3
:10079000ED91FC911D97E05CFF4F20813181E05489
:1007A000F040DF01AE5BBF4F8D919C9111972817F0
:1007B000390719F42FEF3FEF10C08D919C911197DD
:1007C000E80FF91F20818D919C91119701968F73ED
:1007D000907011969C938E9330E0C9010895DC01CE
:1007E00091968C919197882339F05496ED91FC91D4
:1007F0005597808186FFF9CF91961C920895CF93EB
:10080000DF93EC01EE85FF85E05CFF4F20813181B5
:10081000E054F0402F5F3F4F2F733070DF01AE5B2D
:10082000BF4F8D919C91119728173907D1F3E05C48
:10083000FF4F80819181E054F040E80FF91F608301
:10084000EE85FF85E05CFF4F31832083EE89FF89D1
:10085000208181E090E00F8C02C0880F991F0A94DC
:10086000E2F7282B208381E089A3EC89FD89808130
:100870008064808381E090E0DF91CF9108951092B1
:100880009D0210929C0288EE93E0A0E0B0E080937D
:100890009E0290939F02A093A002B093A10283EFC7
:1008A00091E090939B0280939A0282E192E0909370
:1008B000A7028093A60286E592E09093A902809316
:1008C000A80285EC90E09093AB028093AA0284EC9E
:1008D00090E09093AD028093AC0280EC90E0909316
:1008E000AF028093AE0281EC90E09093B1028093CE
:1008F000B00282EC90E09093B3028093B20286EC57
:1009000090E09093B5028093B40284E08093B602A5
:1009100083E08093B70287E08093B80285E08093FC
:10092000B90281E08093BA0208950895CF93DF93CE
:100930000E94EE050E9495040E940302C9EBD2E0DA
:100940000E9451012097E1F30E94B902F9CFCF92A2
:10095000DF92EF92FF920F931F93CF93DF937C016F
:100960006B018A01C0E0D0E00FC0D6016D916D012E
:10097000D701ED91FC910190F081E02DC70109951F
:10098000C80FD91F015010400115110571F7CE0194
:10099000DF91CF911F910F91FF90EF90DF90CF905B
:1009A0000895EF92FF920F931F938C01DC01ED915C
:1009B000FC910190F081E02D6DE009957C01D8015A
:1009C000ED91FC910190F081E02DC8016AE009955C
:1009D0009C012E0D3F1DC9011F910F91FF90EF90BB
:1009E0000895CF93DF93EC016115710519F420E0B0
:1009F00030E00FC0DB010D900020E9F71197A61B36
:100A0000B70BE881F9810280F381E02DAD010995F2
:100A10009C01C901DF91CF9108954F925F927F921F
:100A20008F929F92AF92BF92CF92DF92EF92FF92FE
:100A30000F931F93DF93CF93CDB7DEB7A1970FB678
:100A4000F894DEBF0FBECDBF2C01742ECB01223037
:100A500008F42AE019A231E2C32ED12CCC0EDD1EFF
:100A6000822E9924AA24BB24672D752FA5019401F9
:100A70000E946F0679018A01C801B701A50194019E
:100A80000E942906472D461B0894C108D1084A3008
:100A900014F4405D01C0495CF6014083E114F104A7
:100AA0000105110521F07E2C5F2DC801DDCFC201AB
:100AB000B6010E94F104A1960FB6F894DEBF0FBEF6
:100AC000CDBFCF91DF911F910F91FF90EF90DF90FD
:100AD000CF90BF90AF909F908F907F905F904F90FE
:100AE0000895DC012115310541F4ED91FC9101904F
:100AF000F081E02D642F099508950E940D05089559
:100B0000EF92FF920F931F939A017B0100E010E098
:100B1000B801A7010E9471051F910F91FF90EF90FE
:100B20000895EF92FF920F931F939A01E62EFF24F0
:100B300000E010E0B801A7010E9471051F910F911C
:100B4000FF90EF9008950E94F10408951F920F9274
:100B50000FB60F9211242F933F938F939F93AF93D0
:100B6000BF938091C0029091C102A091C202B09146
:100B7000C3023091C4020196A11DB11D232F2D5F28
:100B80002D3720F02D570196A11DB11D2093C402D1
:100B90008093C0029093C102A093C202B093C3029B
:100BA0008091BC029091BD02A091BE02B091BF02A3
:100BB0000196A11DB11D8093BC029093BD02A0932C
:100BC000BE02B093BF02BF91AF919F918F913F91B1
:100BD0002F910F900FBE0F901F901895789484B5A9
:100BE000826084BD84B5816084BD85B5826085BD29
:100BF00085B5816085BDEEE6F0E08081816080830F
:100C0000E1E8F0E0108280818260808380818160F1
:100C10008083E0E8F0E0808181608083E1EBF0E0B8
:100C2000808184608083E0EBF0E08081816080835C
:100C3000EAE7F0E080818460808380818260808345
:100C40008081816080838081806880831092C10070
:100C50000895629FD001739FF001829FE00DF11D06
:100C6000649FE00DF11D929FF00D839FF00D749F26
:100C7000F00D659FF00D9927729FB00DE11DF91FD2
:100C8000639FB00DE11DF91FBD01CF01112408952F
:100C9000AA1BBB1B51E107C0AA1FBB1FA617B707A2
:100CA00010F0A61BB70B881F991F5A95A9F78095BE
:100CB0009095BC01CD01089597FB092E07260AD017
:100CC00077FD04D0E5DF06D000201AF47095619519
:100CD0007F4F0895F6F7909581959F4F0895A1E273
:100CE0001A2EAA1BBB1BFD010DC0AA1FBB1FEE1FA6
:100CF000FF1FA217B307E407F50720F0A21BB30BF1
:100D0000E40BF50B661F771F881F991F1A9469F76C
:100D100060957095809590959B01AC01BD01CF01C8
:100D20000895EE0FFF1F0590F491E02D0994F894BB
:020D3000FFCFF3
:100D32003A003EFD84FAD1F725F581F2E5EF4FED59
:100D4200C1EA39E8B9E540E3CDE061DEFCDB9DD9DB
:100D520045D7F3D4A8D263D025CEECCBBAC98DC780
:100D620067C547C32CC118BF09BDFFBAFCB8FEB6A0
:100D720005B512B324B13BAF58AD7AABA1A9CEA74A
:100D8200FFA535A470A2B0A0F59E3F9D8D9BE09972
:100D920038989496F5945A93C4913290A48E1B8DF0
:100DA200968B158A98881F87AB853A84CE82658197
:100DB20000800000130016001A001D00200026000B
:100DC2002B0033003A0041004D00560067007300CB
:100DD20081009A00AD00CE00E700030134015A0100
:100DE2009B01CD0106026802B30236039B030C0489
:100DF200D00467056C06350717089F09CD0AD80C81
:100E02006B0E2F103F139A15B119D61C5E207E2649
:100E1200342B6133AC39BC40FC4C6956C2660100CC
:100E2200000000FF03A7049203C603A603EF03001A
:00000001FF
